{
  "contractName": "DiverseTodo",
  "abi": [
    {
      "anonymous": false,
      "inputs": [
        {
          "indexed": false,
          "internalType": "string",
          "name": "content",
          "type": "string"
        }
      ],
      "name": "AddedTodo",
      "type": "event"
    },
    {
      "anonymous": false,
      "inputs": [
        {
          "components": [
            {
              "internalType": "string",
              "name": "content",
              "type": "string"
            },
            {
              "internalType": "bool",
              "name": "completed",
              "type": "bool"
            }
          ],
          "indexed": false,
          "internalType": "struct DiverseTodo.Todo",
          "name": "_todo",
          "type": "tuple"
        }
      ],
      "name": "ChangedTodoState",
      "type": "event"
    },
    {
      "anonymous": false,
      "inputs": [
        {
          "indexed": false,
          "internalType": "string",
          "name": "content",
          "type": "string"
        }
      ],
      "name": "DeletedTodo",
      "type": "event"
    },
    {
      "inputs": [
        {
          "internalType": "uint256",
          "name": "",
          "type": "uint256"
        }
      ],
      "name": "todos",
      "outputs": [
        {
          "internalType": "string",
          "name": "content",
          "type": "string"
        },
        {
          "internalType": "bool",
          "name": "completed",
          "type": "bool"
        }
      ],
      "stateMutability": "view",
      "type": "function"
    },
    {
      "inputs": [
        {
          "internalType": "string",
          "name": "_content",
          "type": "string"
        }
      ],
      "name": "createTodo",
      "outputs": [
        {
          "components": [
            {
              "internalType": "string",
              "name": "content",
              "type": "string"
            },
            {
              "internalType": "bool",
              "name": "completed",
              "type": "bool"
            }
          ],
          "internalType": "struct DiverseTodo.Todo",
          "name": "",
          "type": "tuple"
        }
      ],
      "stateMutability": "nonpayable",
      "type": "function"
    },
    {
      "inputs": [
        {
          "internalType": "uint256",
          "name": "_index",
          "type": "uint256"
        }
      ],
      "name": "deleteTodo",
      "outputs": [],
      "stateMutability": "nonpayable",
      "type": "function"
    },
    {
      "inputs": [
        {
          "internalType": "uint256",
          "name": "_index",
          "type": "uint256"
        }
      ],
      "name": "toggleTodo",
      "outputs": [],
      "stateMutability": "nonpayable",
      "type": "function"
    },
    {
      "inputs": [],
      "name": "lengthOfTodo",
      "outputs": [
        {
          "internalType": "uint256",
          "name": "",
          "type": "uint256"
        }
      ],
      "stateMutability": "view",
      "type": "function"
    }
  ],
  "bytecode": "0x608060405234801561001057600080fd5b50610edf806100206000396000f3fe608060405234801561001057600080fd5b50600436106100575760003560e01c806369087bd81461005c5780636e3c67381461007a578063bc8bc2b414610096578063dc00282c146100c7578063e34f1221146100e3575b600080fd5b610064610113565b6040516100719190610786565b60405180910390f35b610094600480360381019061008f91906107e1565b61011f565b005b6100b060048036038101906100ab91906107e1565b610374565b6040516100be9291906108c2565b60405180910390f35b6100e160048036038101906100dc91906107e1565b61043d565b005b6100fd60048036038101906100f89190610a27565b610512565b60405161010a9190610b06565b60405180910390f35b60008080549050905090565b6000805490508110610166576040517f08c379a000000000000000000000000000000000000000000000000000000000815260040161015d90610b74565b60405180910390fd5b600080828154811061017b5761017a610b94565b5b9060005260206000209060020201600001805461019790610bf2565b80601f01602080910402602001604051908101604052809291908181526020018280546101c390610bf2565b80156102105780601f106101e557610100808354040283529160200191610210565b820191906000526020600020905b8154815290600101906020018083116101f357829003601f168201915b5050505050905060008290505b600160008054905061022f9190610c52565b8110156102e95760006001826102459190610c86565b8154811061025657610255610b94565b5b90600052602060002090600202016000828154811061027857610277610b94565b5b9060005260206000209060020201600082018160000190805461029a90610bf2565b6102a59291906105e1565b506001820160009054906101000a900460ff168160010160006101000a81548160ff02191690831515021790555090505080806102e190610cdc565b91505061021d565b5060008054806102fc576102fb610d24565b5b600190038181906000526020600020906002020160008082016000610321919061066e565b6001820160006101000a81549060ff0219169055505090557f07d50b4304a53c8bca247cfb4bad87355559868908d83f8b2750f410ddcb8981816040516103689190610d53565b60405180910390a15050565b6000818154811061038457600080fd5b90600052602060002090600202016000915090508060000180546103a790610bf2565b80601f01602080910402602001604051908101604052809291908181526020018280546103d390610bf2565b80156104205780601f106103f557610100808354040283529160200191610420565b820191906000526020600020905b81548152906001019060200180831161040357829003601f168201915b5050505050908060010160009054906101000a900460ff16905082565b6000805490508110610484576040517f08c379a000000000000000000000000000000000000000000000000000000000815260040161047b90610b74565b60405180910390fd5b600080828154811061049957610498610b94565b5b906000526020600020906002020190508060010160009054906101000a900460ff16158160010160006101000a81548160ff0219169083151502179055507f9a679adc5c5a31c5d51486ec98f8c08d322b6bf60f2549ac2acba6f3edf301a3816040516105069190610e87565b60405180910390a15050565b61051a6106ae565b600060405180604001604052808481526020016000151581525090506000819080600181540180825580915050600190039060005260206000209060020201600090919091909150600082015181600001908051906020019061057e9291906106ca565b5060208201518160010160006101000a81548160ff02191690831515021790555050507f2bd7c56b9c2adbb97ae40b2ce4845c7a8e3a96a719222e201f220885077f83f2836040516105d09190610d53565b60405180910390a180915050919050565b8280546105ed90610bf2565b90600052602060002090601f01602090048101928261060f576000855561065d565b82601f10610620578054855561065d565b8280016001018555821561065d57600052602060002091601f016020900482015b8281111561065c578254825591600101919060010190610641565b5b50905061066a9190610750565b5090565b50805461067a90610bf2565b6000825580601f1061068c57506106ab565b601f0160209004906000526020600020908101906106aa9190610750565b5b50565b6040518060400160405280606081526020016000151581525090565b8280546106d690610bf2565b90600052602060002090601f0160209004810192826106f8576000855561073f565b82601f1061071157805160ff191683800117855561073f565b8280016001018555821561073f579182015b8281111561073e578251825591602001919060010190610723565b5b50905061074c9190610750565b5090565b5b80821115610769576000816000905550600101610751565b5090565b6000819050919050565b6107808161076d565b82525050565b600060208201905061079b6000830184610777565b92915050565b6000604051905090565b600080fd5b600080fd5b6107be8161076d565b81146107c957600080fd5b50565b6000813590506107db816107b5565b92915050565b6000602082840312156107f7576107f66107ab565b5b6000610805848285016107cc565b91505092915050565b600081519050919050565b600082825260208201905092915050565b60005b8381101561084857808201518184015260208101905061082d565b83811115610857576000848401525b50505050565b6000601f19601f8301169050919050565b60006108798261080e565b6108838185610819565b935061089381856020860161082a565b61089c8161085d565b840191505092915050565b60008115159050919050565b6108bc816108a7565b82525050565b600060408201905081810360008301526108dc818561086e565b90506108eb60208301846108b3565b9392505050565b600080fd5b600080fd5b7f4e487b7100000000000000000000000000000000000000000000000000000000600052604160045260246000fd5b6109348261085d565b810181811067ffffffffffffffff82111715610953576109526108fc565b5b80604052505050565b60006109666107a1565b9050610972828261092b565b919050565b600067ffffffffffffffff821115610992576109916108fc565b5b61099b8261085d565b9050602081019050919050565b82818337600083830152505050565b60006109ca6109c584610977565b61095c565b9050828152602081018484840111156109e6576109e56108f7565b5b6109f18482856109a8565b509392505050565b600082601f830112610a0e57610a0d6108f2565b5b8135610a1e8482602086016109b7565b91505092915050565b600060208284031215610a3d57610a3c6107ab565b5b600082013567ffffffffffffffff811115610a5b57610a5a6107b0565b5b610a67848285016109f9565b91505092915050565b600082825260208201905092915050565b6000610a8c8261080e565b610a968185610a70565b9350610aa681856020860161082a565b610aaf8161085d565b840191505092915050565b610ac3816108a7565b82525050565b60006040830160008301518482036000860152610ae68282610a81565b9150506020830151610afb6020860182610aba565b508091505092915050565b60006020820190508181036000830152610b208184610ac9565b905092915050565b7f696e646578206f7574206f6620626f756e640000000000000000000000000000600082015250565b6000610b5e601283610819565b9150610b6982610b28565b602082019050919050565b60006020820190508181036000830152610b8d81610b51565b9050919050565b7f4e487b7100000000000000000000000000000000000000000000000000000000600052603260045260246000fd5b7f4e487b7100000000000000000000000000000000000000000000000000000000600052602260045260246000fd5b60006002820490506001821680610c0a57607f821691505b602082108103610c1d57610c1c610bc3565b5b50919050565b7f4e487b7100000000000000000000000000000000000000000000000000000000600052601160045260246000fd5b6000610c5d8261076d565b9150610c688361076d565b925082821015610c7b57610c7a610c23565b5b828203905092915050565b6000610c918261076d565b9150610c9c8361076d565b9250827fffffffffffffffffffffffffffffffffffffffffffffffffffffffffffffffff03821115610cd157610cd0610c23565b5b828201905092915050565b6000610ce78261076d565b91507fffffffffffffffffffffffffffffffffffffffffffffffffffffffffffffffff8203610d1957610d18610c23565b5b600182019050919050565b7f4e487b7100000000000000000000000000000000000000000000000000000000600052603160045260246000fd5b60006020820190508181036000830152610d6d818461086e565b905092915050565b60008190508160005260206000209050919050565b60008154610d9781610bf2565b610da18186610a70565b94506001821660008114610dbc5760018114610dce57610e01565b60ff1983168652602086019350610e01565b610dd785610d75565b60005b83811015610df957815481890152600182019150602081019050610dda565b808801955050505b50505092915050565b60008160001c9050919050565b600060ff82169050919050565b6000610e37610e3283610e0a565b610e17565b9050919050565b60006040830160008084018583036000870152610e5b8382610d8a565b92505060018401549050610e6e81610e24565b610e7b6020870182610aba565b50819250505092915050565b60006020820190508181036000830152610ea18184610e3e565b90509291505056fea2646970667358221220b131fee25a5596b6d77dddaa6785b6523705f35106dae850830fbec9a405b36864736f6c634300080d0033",
  "immutableReferences": {},
  "source": "// SPDX-License-Identifier: MIT\npragma solidity  ^0.8.13;\n\ncontract DiverseTodo {\n\n    struct Todo {\n        string content;\n        bool completed;        \n    }\n\n    Todo[] public todos;\n\n    event AddedTodo(string content);\n    event DeletedTodo(string content);\n    event ChangedTodoState(Todo _todo);\n\n    function createTodo(string memory _content) public returns( Todo memory ) {\n        Todo memory _newTodo = Todo(_content,false);\n\n        todos.push(_newTodo);\n        emit AddedTodo(_content);\n\n        return _newTodo;\n    }\n\n    function deleteTodo(uint _index) public {\n        require(_index < todos.length, \"index out of bound\");\n\n        string memory _content = todos[_index].content;\n\n        for (uint i = _index; i < todos.length - 1; i++) {\n            todos[i] = todos[i + 1];\n        }\n        todos.pop();\n\n        emit DeletedTodo(_content);\n    }\n\n\n    function toggleTodo(uint _index) public{\n        require(_index < todos.length, \"index out of bound\");\n\n        Todo storage _todo = todos[_index];\n        _todo.completed = !_todo.completed;\n\n        emit ChangedTodoState(_todo);\n    }\n\n    function lengthOfTodo() view public returns(uint) {\n        return todos.length;\n    }\n\n}\n\n",
  "sourcePath": "/Users/mnkhod/Projects/Blockchain/diverse-blockchain-github/diverse-template-truffle-nextjs/contracts/DiverseTodo.sol",
  "compiler": {
    "name": "solc",
    "version": "0.8.13+commit.abaa5c0e.Emscripten.clang"
  },
  "schemaVersion": "3.4.6",
  "updatedAt": "2022-04-01T10:35:47.297Z",
  "devdoc": {
    "kind": "dev",
    "methods": {},
    "version": 1
  },
  "userdoc": {
    "kind": "user",
    "methods": {},
    "version": 1
  }
}