{
  "contractName": "Ownable",
  "abi": [
    {
      "inputs": [],
      "stateMutability": "nonpayable",
      "type": "constructor"
    },
    {
      "inputs": [],
      "name": "owner",
      "outputs": [
        {
          "internalType": "address",
          "name": "",
          "type": "address"
        }
      ],
      "stateMutability": "view",
      "type": "function"
    },
    {
      "inputs": [],
      "name": "onlyOwnerCanCall",
      "outputs": [
        {
          "internalType": "bool",
          "name": "",
          "type": "bool"
        }
      ],
      "stateMutability": "view",
      "type": "function"
    },
    {
      "inputs": [],
      "name": "anyoneCanCall",
      "outputs": [
        {
          "internalType": "bool",
          "name": "",
          "type": "bool"
        }
      ],
      "stateMutability": "pure",
      "type": "function"
    },
    {
      "inputs": [
        {
          "internalType": "address",
          "name": "_newOwner",
          "type": "address"
        }
      ],
      "name": "setOwner",
      "outputs": [],
      "stateMutability": "nonpayable",
      "type": "function"
    }
  ],
  "bytecode": "0x608060405234801561001057600080fd5b50336000806101000a81548173ffffffffffffffffffffffffffffffffffffffff021916908373ffffffffffffffffffffffffffffffffffffffff160217905550610520806100606000396000f3fe608060405234801561001057600080fd5b506004361061004c5760003560e01c806313af4035146100515780635bc749e41461006d5780638da5cb5b1461008b578063db1e82c9146100a9575b600080fd5b61006b6004803603810190610066919061034e565b6100c7565b005b610075610226565b6040516100829190610396565b60405180910390f35b6100936102be565b6040516100a091906103c0565b60405180910390f35b6100b16102e2565b6040516100be9190610396565b60405180910390f35b60008054906101000a900473ffffffffffffffffffffffffffffffffffffffff1673ffffffffffffffffffffffffffffffffffffffff163373ffffffffffffffffffffffffffffffffffffffff1614610155576040517f08c379a000000000000000000000000000000000000000000000000000000000815260040161014c90610438565b60405180910390fd5b60008054906101000a900473ffffffffffffffffffffffffffffffffffffffff1673ffffffffffffffffffffffffffffffffffffffff168173ffffffffffffffffffffffffffffffffffffffff16036101e3576040517f08c379a00000000000000000000000000000000000000000000000000000000081526004016101da906104ca565b60405180910390fd5b806000806101000a81548173ffffffffffffffffffffffffffffffffffffffff021916908373ffffffffffffffffffffffffffffffffffffffff16021790555050565b60008060009054906101000a900473ffffffffffffffffffffffffffffffffffffffff1673ffffffffffffffffffffffffffffffffffffffff163373ffffffffffffffffffffffffffffffffffffffff16146102b7576040517f08c379a00000000000000000000000000000000000000000000000000000000081526004016102ae90610438565b60405180910390fd5b6001905090565b60008054906101000a900473ffffffffffffffffffffffffffffffffffffffff1681565b60006001905090565b600080fd5b600073ffffffffffffffffffffffffffffffffffffffff82169050919050565b600061031b826102f0565b9050919050565b61032b81610310565b811461033657600080fd5b50565b60008135905061034881610322565b92915050565b600060208284031215610364576103636102eb565b5b600061037284828501610339565b91505092915050565b60008115159050919050565b6103908161037b565b82525050565b60006020820190506103ab6000830184610387565b92915050565b6103ba81610310565b82525050565b60006020820190506103d560008301846103b1565b92915050565b600082825260208201905092915050565b7f4e6f74204f776e65720000000000000000000000000000000000000000000000600082015250565b60006104226009836103db565b915061042d826103ec565b602082019050919050565b6000602082019050818103600083015261045181610415565b9050919050565b7f43616e74206265207468652073616d652061646472657373206173207468652060008201527f63757272656e74206f776e657220616464726573730000000000000000000000602082015250565b60006104b46035836103db565b91506104bf82610458565b604082019050919050565b600060208201905081810360008301526104e3816104a7565b905091905056fea2646970667358221220aa8b2142db8111b7fa2d697ebdaace0a8f7f048a927f92d5825673e7901040d164736f6c634300080d0033",
  "immutableReferences": {},
  "source": "// SPDX-License-Identifier: MIT\npragma solidity ^0.8.13;\n\ncontract Ownable{\n  address public owner;\n\n  constructor(){\n    owner = msg.sender;\n  }\n\n  modifier onlyOwner(){\n    require(msg.sender == owner,\"Not Owner\");\n    _;\n  }\n\n  function onlyOwnerCanCall() view external onlyOwner returns( bool ){\n    return true;\n  }\n\n  function anyoneCanCall() pure external returns( bool ){\n    return true;\n  }\n\n  function setOwner(address _newOwner) external onlyOwner{\n    require(_newOwner != owner,\"Cant be the same address as the current owner address\");\n    owner = _newOwner;\n  }\n}\n",
  "sourcePath": "/Users/mnkhod/Projects/Blockchain/diverse-blockchain-github/diverse-ownable/contracts/Ownable.sol",
  "compiler": {
    "name": "solc",
    "version": "0.8.13+commit.abaa5c0e.Emscripten.clang"
  },
  "schemaVersion": "3.4.6",
  "updatedAt": "2022-04-02T04:21:45.723Z",
  "devdoc": {
    "kind": "dev",
    "methods": {},
    "version": 1
  },
  "userdoc": {
    "kind": "user",
    "methods": {},
    "version": 1
  }
}